{
  "contractName": "Election",
  "abi": [
    {
      "constant": true,
      "inputs": [],
      "name": "candidate",
      "outputs": [
        {
          "name": "",
          "type": "string"
        }
      ],
      "payable": false,
      "stateMutability": "view",
      "type": "function"
    },
    {
      "inputs": [
        {
          "name": "",
          "type": "address"
        }
      ],
      "payable": false,
      "stateMutability": "nonpayable",
      "type": "constructor"
    }
  ],
  "bytecode": "0x608060405234801561001057600080fd5b506040516020806102e78339810180604052602081101561003057600080fd5b81019080805190602001909291905050506040805190810160405280600b81526020017f43616e64696461746520310000000000000000000000000000000000000000008152506000908051906020019061008c929190610093565b5050610138565b828054600181600116156101000203166002900490600052602060002090601f016020900481019282601f106100d457805160ff1916838001178555610102565b82800160010185558215610102579182015b828111156101015782518255916020019190600101906100e6565b5b50905061010f9190610113565b5090565b61013591905b80821115610131576000816000905550600101610119565b5090565b90565b6101a0806101476000396000f3fe608060405260043610610041576000357c0100000000000000000000000000000000000000000000000000000000900463ffffffff1680636c8381f814610046575b600080fd5b34801561005257600080fd5b5061005b6100d6565b6040518080602001828103825283818151815260200191508051906020019080838360005b8381101561009b578082015181840152602081019050610080565b50505050905090810190601f1680156100c85780820380516001836020036101000a031916815260200191505b509250505060405180910390f35b60008054600181600116156101000203166002900480601f01602080910402602001604051908101604052809291908181526020018280546001816001161561010002031660029004801561016c5780601f106101415761010080835404028352916020019161016c565b820191906000526020600020905b81548152906001019060200180831161014f57829003601f168201915b50505050508156fea165627a7a72305820eb2607cbcd0ed28d1e84e1802289eb1458e3da7c9521b19ab278f53ade2859830029",
  "source": "pragma solidity ^0.5.0;\r\n\r\ncontract Election {\r\n    // Read/write candidate\r\n    string public candidate;\r\n\r\n    // Constructor\r\n    constructor(Election) public {\r\n        candidate = \"Candidate 1\";\r\n    }\r\n}",
  "sourcePath": "C:/Users/wrigh/DaddysDirtyDapp/contracts/Election.sol",
  "compiler": {
    "name": "solc",
    "version": "0.5.0+commit.1d4f565a.Emscripten.clang"
  },
  "schemaVersion": "3.0.1",
  "updatedAt": "2021-07-24T02:24:59.172Z",
  "devdoc": {
    "methods": {}
  },
  "userdoc": {
    "methods": {}
  }
}